:1000000045C0000062C0000060C000000C9485087C
:100010005CC000005AC0000058C0000056C000007C
:1000200054C000000C94360850C000004EC00000C0
:100030004CC000004AC0000048C0000046C000009C
:10004000EEC7000042C000000C945E083EC00000F5
:100050003CC000003AC0000038C0000036C00000BC
:1000600034C0000032C0000030C000002EC00000CC
:100070002CC000002AC0000028C0000026C00000DC
:1000800024C0000022C0000020C0000011241FBEB8
:10009000CFEFD0E1DEBFCDBF11E0A0E0B1E0E4E002
:1000A000FCE100E00BBF02C007900D92AE37B10734
:1000B000D9F722E0AEE7B1E001C01D92A333B20749
:1000C000E1F70E94AC080C94000E9ACF4091AA016F
:1000D0005091AB014F5F5F4F9A013695279536954A
:1000E000279536952795A5ECB0E20E94BB0A92951C
:1000F00082958F7089279F70892768EE73E0869FAD
:100100009001879F300D969F300D1124CA01821BEC
:10011000930B9093AB018093AA01892B51F48091AA
:10012000BF0190E001966CE370E00E948C0A80931E
:10013000BF0108954091AC015091AD014F5F5F4FF9
:100140009A01369527953695279536952795A5ECEE
:10015000B0E20E94BB0A929582958F7089279F70AA
:10016000892768EE73E0869F9001879F300D969FE8
:10017000300D1124CA01821B930B9093AD01809323
:10018000AC012091870130918801B9010E94780A61
:10019000369527958217930710F468D401C06AD466
:1001A0008091AC019091AD01892BE9F48091B80167
:1001B000811103C08CE38093B8018091B80190E075
:1001C00001976CE370E00E948C0A8093B8018B3336
:1001D00051F48091B70190E001976CE370E00E94C8
:1001E0008C0A8093B7010895F7D237D30E94200973
:1001F00080E091E09093300280932F0256D61CD479
:1002000020E049E350E06AE370E080EC91E0ADD299
:1002100021E049E350E06AE370E08FEA91E0A5D283
:100220001092B501109289011092AB011092AA01AF
:100230001092BF0108958091B501882319F0813093
:1002400089F0089580EC91E09DD2823099F487D3B3
:1002500081E08093B5011092AB011092AA01109237
:10026000BF01089580EC91E08DD2823019F477D3EC
:100270001092B501089580918901813089F028F0AC
:100280008230C9F0833011F108958FEA91E07AD27B
:10029000823029F577D381E08093890158C608958B
:1002A0008FEA91E06FD28230D1F46CD382E08093F8
:1002B00089014DC608958FEA91E064D2823079F4C5
:1002C00061D383E08093890142C608958FEA91E06B
:1002D00059D2823021F456D31092890138C608953C
:1002E000CF93DF93E5D7EC01DDD7882309F43FC036
:1002F000DCD769E171E0CE010E94EC0A892B41F460
:10030000109289018EE191E00E94F50A20D62FC05B
:1003100062E271E0CE010E94EC0A892B49F481E08F
:100320008093890187E291E00E94F50A10D61FC0F0
:100330006BE271E0CE010E94EC0A892B49F482E065
:100340008093890183E391E00E94F50A00D60FC0F3
:100350006AE371E0CE010E94EC0A892B41F483E04C
:100360008093890180E491E00E94F50AF0D5DF9145
:10037000CF9108958091BF01833041F4809189012C
:100380008F5F809389011092BF01E1D5809189012F
:10039000843019F481E08093890108958091B60139
:1003A00081110CC08091AE01813041F4109289011D
:1003B0001092B5011092AE01CAD590C20895109264
:1003C000B8011092B70188EE93E090938801809372
:1003D00087011092B601B3D440D31DD725D722E0B0
:1003E00049E350E06AE370E089EB91E0BEC1089513
:1003F0008091B601813079F028F08230B1F08330FD
:10040000F1F008951092AD011092AC011092B80174
:100410001092B70108951092AD011092AC011092A4
:10042000B80181E08093B70108951092AD01109258
:10043000AC011092B80183E08093B7010895109247
:10044000AD011092AC011092B80185E08093B70124
:100450000895CF938091B601813099F028F08230D1
:10046000F1F0833051F134C089EB91E08BD18230CF
:1004700079F59BD2C1E0C093B601BADFC093AE015B
:1004800027C089EB91E07ED1823011F58ED282E0D7
:100490008093B601ADDF81E08093AE0119C089EB96
:1004A00091E070D18230A1F480D283E08093B601D4
:1004B0009FDF81E08093AE010BC089EB91E062D1B8
:1004C000823031F472D21092B60192DF1092AE01F6
:1004D000CF9108958091B801811107C08091B70133
:1004E000811103C01092B60183CF0895CF93DF939B
:1004F00080918901813019F138F0823009F43CC0D3
:10050000833009F456C071C0CAE8D1E085E0E8E65E
:10051000F1E0DE0101900D928A95E1F7AE0163E012
:1005200080E018D58FE496E49983888386E490E090
:100530009B838A83AE0163E081E00CD556C085E0E1
:10054000E8E6F1E0AAE8B1E001900D928A95E1F7C2
:100550004AE851E063E080E0FDD489E0E5E4F1E0C1
:10056000AAE8B1E001900D928A95E1F74AE851E0DE
:1005700063E081E0EFD439C085E0E8E6F1E0AAE885
:10058000B1E001900D928A95E1F74AE851E063E00D
:1005900080E0E0D48CE0EEE4F1E0AAE8B1E0019084
:1005A0000D928A95E1F74AE851E063E081E0D2D408
:1005B0001CC085E0E8E6F1E0AAE8B1E001900D9208
:1005C0008A95E1F74AE851E063E080E0C3D48AE02D
:1005D000EAE5F1E0AAE8B1E001900D928A95E1F731
:1005E0004AE851E063E081E0B5D4DF91CF9108950E
:1005F00080918901813049F028F0823069F08330A0
:1006000091F0089513D272CF08950AD265E088EE72
:1006100093E0DED16BCF089503D263E088EE93E0E0
:10062000D7D164CF0895FCD161E088EE93E0D0D1BA
:100630005DCF08958091B501882319F0813029F0AC
:10064000089519DE4DDED4CF089594DED1CF0895FC
:10065000F2DDF0CF0895CF93DF93CAE8D1E089E0CF
:10066000E4E6F1E0DE0101900D928A95E1F7AE013A
:1006700063E080E0B1D38091B8011F928F938091A5
:10068000B7011F928F938DE691E09F938F93DF9335
:10069000CF93DBD7AE0162E081E09ED38DB79EB7EA
:1006A00008960FB6F8949EBF0FBE8DBFDF91CF9115
:1006B00008952091B7018091B80190E034E6239F1E
:1006C000800D911D1124EBC20895F3DFC4CF08956E
:1006D000C0DEFBDFFFDE62CE08950A9710F480E0F3
:1006E000089581E008956ED487D48823A9F187D432
:1006F00089D49093A9018093A801EFDF882319F092
:100700008130E1F0089580918001811125C08091B0
:10071000B50180937F018091890180937E011092C1
:10072000B5011092890181E08093800110D410926C
:10073000AB011092AA011092BF010895809180012F
:10074000813051F480917F018093B50180917E01C9
:100750008093890110928001089523D430DE44CD26
:100760000895C1DFB5DF74CF0895FC01CB0171831B
:10077000608353834283248331E0358341E0622FD9
:10078000EFC40895CF93DF93EC016C818A819B8144
:1007900002D5982F81110BC08D81813041F4EFE398
:1007A000FCE93197F1F700C000001D8212C09923C7
:1007B00069F08D8181110CC08FE39CE90197F1F7FD
:1007C00000C0000081E08D8382E003C080E001C0B2
:1007D00080E0DF91CF910895EAE8F0E080818861C0
:1007E0008083ABE8B0E08C9182608C9380818360E1
:1007F000808382B1806182B908958436910528F0A2
:10080000813A2FE0920720F405C084E690E002C010
:1008100080EA9FE09C0140E050E060E970ED83E0F9
:1008200090E08DD621503109E0E8F0E0318320835B
:10083000808191819695879590938500809384001F
:100840000895EBE8F0E08081806280830895EBE812
:10085000F0E080818F7C80830895CF93DF93F1DF78
:1008600086E194E0CADF2FEF81EE94E021508040D2
:100870009040E1F700C00000C8E8D0E0198218827B
:1008800086E295E0BADF2FEF81EE94E021508040C0
:100890009040E1F700C00000198218828FE196E0D5
:1008A000ACDF2FEF81EE94E0215080409040E1F7E3
:1008B00000C00000198218828DE298E09EDF2FEFC1
:1008C00081EE94E0215080409040E1F700C00000AC
:1008D00019821882BCDFDF91CF910895CF93DF9307
:1008E000B0DF8DE298E089DF2FEF81EE94E02150B8
:1008F00080409040E1F700C00000C8E8D0E01982D5
:1009000018828FE196E079DF2FEF81EE94E021509D
:1009100080409040E1F700C000001982188286E212
:1009200095E06BDF2FEF81EE94E021508040904006
:10093000E1F700C000001982188286E194E05DDFD3
:100940002FEF81EE94E0215080409040E1F700C00D
:100950000000198218827BDFDF91CF91089571DF4B
:1009600086E194E04ADF2FEF81EE94E02150804051
:100970009040E1F700C000001092890010928800BA
:1009800066CF08955EDF86E295E037DF2FEF81EED8
:1009900094E0215080409040E1F700C000001092A8
:1009A00089001092880053CF08954BDF8FE196E0C5
:1009B00024DF2FEF81EE94E0215080409040E1F75A
:1009C00000C00000109289001092880040CF089566
:1009D000CF93C62F8436910528F0813A2FE09207F5
:1009E00020F405C084E690E002C080EA9FE09C010C
:1009F00040E050E060E970ED83E090E0A0D5215048
:100A00003109E0E8F0E031832083808191816C2F0F
:100A100070E06ED57093870060938600CF91089543
:100A2000EBE8F0E08081806880830895EBE8F0E0F7
:100A300080818F7780830895EAE8F0E08081886183
:100A40008083ABE8B0E08C9182608C93808183607E
:100A5000808382B1886082B90895E4E6F0E0808105
:100A60008F6080838FEF80936100089581E0809391
:100A7000820108951092820108950F931F93CF93DE
:100A8000DF93CDB7DEB72B970FB6F894DEBF0FBE5E
:100A9000CDBF8C018BE0EEE0F1E0DE01119601901C
:100AA0000D928A95E1F78091810190E0019665E0D1
:100AB00070E032D580938101E5E6F0E080818F60BF
:100AC000808380918101823009F478C030F48823DA
:100AD00059F0813009F440C0D7C0833009F49EC07A
:100AE000843009F4C2C0D0C0980136952795369558
:100AF000279536952795A5ECB0E23DD5AC015295EA
:100B000042954F7045275F7045279A01ADECBCECCC
:100B100032D59695879596958795969587959C015C
:100B2000220F331F880F991F880F991F880F991F55
:100B3000820F931F9A01281B390BE1E0F0E0EC0FC4
:100B4000FD1FE20FF31F808180936200E5E6F0E075
:100B500080818E7F808398C0980136952795369541
:100B60002795ABE7B4E107D5AC01569547959A01B7
:100B7000ADECBCEC00D596958795969587959695A6
:100B800087959C01220F331F880F991F880F991F8B
:100B9000880F991F820F931F9A01281B390BE1E0E0
:100BA000F0E0EC0FFD1FE20FF31F808180936200E5
:100BB000E5E6F0E080818D7F808366C09801ADEC32
:100BC000BCECD9D4AC0156954795569547955695AA
:100BD00047959A01D0D49695879596958795969541
:100BE00087959C01220F331F880F991F880F991F2B
:100BF000880F991F820F931F9A01281B390BE1E080
:100C0000F0E0EC0FFD1FE20FF31F80818093620084
:100C1000E5E6F0E080818B7F808336C09801ADEC03
:100C2000BCECA9D4969587959695879596958795CA
:100C30009C01220F331F880F991F880F991F880F5F
:100C4000991F820F931F9801281B390BE1E0F0E0F8
:100C5000EC0FFD1FE20FF31F808180936200E5E639
:100C6000F0E08081877F80830FC08091820188239C
:100C700021F08B858093620002C010926200E5E64D
:100C8000F0E080818D7F80832B960FB6F894DEBFD5
:100C90000FBECDBFDF91CF911F910F91089590931B
:100CA0008401809383010895809183019091840150
:100CB000E4CE089587B3806E87BB8FEF84BB089521
:100CC00088BB08958091C7018F7D8093C701F8CFBD
:100CD00008958091C70180628093C701F1CF089584
:100CE0008091C7018F7B8093C701EACF08958091DF
:100CF000C70180688093C701E3DF8FE99FE0019718
:100D0000F1F700C0000008958091C7018F778093AC
:100D1000C701D6DF8FE99FE00197F1F700C000001F
:100D2000089585BB0895FDCF0895CF93C82FCADFDE
:100D3000D7DFDDDF8C2FF7DFE7DFCF910895BADF54
:100D40008FE59AEE0197F1F700C0000088E3EDDF30
:100D50008FE19EE40197F1F700C0000088E3E5DF32
:100D60008FE99FE00197F1F700C0000088E3DDDF25
:100D700088E3DBDF88E0D9DF81E0D7DF86E0D5DFFD
:100D80008CE0D3CF0895CF93C82FA3DFA9DFAFDFC7
:100D90008C2FC9DFB9DFCF9108950F931F93CF93A5
:100DA000DF938C01C0E0D0E002C0EDDF2196F801B6
:100DB000EC0FFD1F80818111F8CFDF91CF911F9142
:100DC0000F9108956F70817090E4899F600D1124D8
:100DD000862F8058AACF0895CF93DF93EA01F2DFE0
:100DE000CE01DBDFDF91CF91089508C208956091B5
:100DF000C60168606093C6018EE4F7CF08956091E4
:100E0000C6016E7F6093C6018EE4EFCF08956091B6
:100E1000C60161606093C6018EE4E7CF08956091DA
:100E2000C6016D7F6093C6018EE4DFCF08956091A7
:100E3000C60164606093C6018EE4D7DF8FE99FE04E
:100E40000197F1F700C0000008956091C6016B7F23
:100E50006093C6018EE4C9DF8FE99FE00197F1F747
:100E600000C000000895CF93C82FE1DF6091C60154
:100E70006F70C07F6C2B6093C6018EE4B6DFE5DF38
:100E8000CF910895CF93C82FEEDF8C2F8295807F6E
:100E9000EADFCF910895CF93C82FB1DFC0DFC7DF5E
:100EA0008C2FF0DFD2DFCF9108957FD18FE59AEEBE
:100EB0000197F1F700C00000A2DFB1DF80E3D3DFCC
:100EC0008FE19EE40197F1F700C0000080E3CBDFE3
:100ED0008FE99FE00197F1F700C0000080E3C3DFD6
:100EE00080E2C1DF88E2D7DF88E0D5DF81E0D3DFB1
:100EF00086E0D1DF8CE0CFDF7ACF0895CF93C82F83
:100F000086DF8DDF94DF8C2FBDDF9FDFCF910895CB
:100F10000F931F93CF93DF938C01C0E0D0E002C00A
:100F2000EDDF2196F801EC0FFD1F80818111F8CFD4
:100F3000DF91CF911F910F9108956F70817090E4B0
:100F4000899F600D1124862F8058A5CF089581E0D8
:100F5000A2CF0895CF93DF93EA01EFDFCE01D8DF70
:100F6000DF91CF910895811109C0EAE6F0E0808118
:100F70008F7C80838081806280830895EAE6F0E040
:100F800080818F7C808380818063808308951DBCF5
:100F90001CBC8EB583608EBD08958EB5887F8EBDD6
:100FA000089581B38B7F81BB81B3886081BBEAE602
:100FB000F0E080818063808389B7846089BF10926C
:100FC0008601089582B3886082BB85E38A95F1F734
:100FD000000082B3877F82BB089581E08093860101
:100FE0000895829B04C0D3DF80E0BDCF0895D5DF94
:100FF00081E0B9DFF2CF08958091860108951092C3
:10100000860108956CB57DB580E090E080D126E939
:1010100033E44BE85DE3E1D14ED1CB0108951F925B
:101020000F920FB60F9211240BB60F922F933F938E
:101030004F935F936F937F938F939F93AF93BF93E0
:10104000EF93FF9331DEFF91EF91BF91AF919F91AD
:101050008F917F916F915F914F913F912F910F9061
:101060000BBE0F900FBE0F901F9018951F920F92FE
:101070000FB60F9211240BB60F922F933F934F93FD
:101080005F936F937F938F939F93AF93BF93EF93F0
:10109000FF9350D81BD8FF91EF91BF91AF919F91D3
:1010A0008F917F916F915F914F913F912F910F9011
:1010B0000BBE0F900FBE0F901F9018951F920F92AE
:1010C0000FB60F9211240BB60F922F933F934F93AD
:1010D0005F936F937F938F939F93AF93BF93EF93A0
:1010E000FF93C0D0FF91EF91BF91AF919F918F91EE
:1010F0007F916F915F914F913F912F910F900BBE18
:101100000F900FBE0F901F9018951F920F920FB661
:101110000F9211240BB60F922F933F934F935F932F
:101120006F937F938F939F93AF93BF93EF93FF93AF
:1011300058DFFF91EF91BF91AF919F918F917F9178
:101140006F915F914F913F912F910F900BBE0F9038
:101150000FBE0F901F9018957894FFDA02DBFECF38
:1011600041110CC0FC01408121E030E002C0220F9F
:10117000331F6A95E2F7242B20830895FC014081F8
:1011800021E030E002C0220F331F6A95E2F720957C
:10119000242320830895FC01808190E002C095956E
:1011A00087956A95E2F78170089581B3816081BB6C
:1011B00088E48093700010927100089584EA80930F
:1011C0007400809174008823E4F70895809373007D
:1011D00084E880937400809174008823E4F7089574
:1011E0008093730084E88093740080917400882356
:1011F000E4F7089584E9809374000895CF93DF9312
:10120000D82FC62FDBDF8D2FE1DF8C2FE9DFF2DF58
:10121000DF91CF91089583B7856083BF87B78160E1
:1012200087BF82E882BF089585B5836085BD85B597
:10123000886085BD87B7806887BF89EF83BD0895C3
:101240008AB188618AB98BB182608BB98FEC89B918
:101250008AB180688AB91092C80108955D9BFECF5B
:101260008CB908959CB19A3091F4E0918501AE2F2C
:10127000B0E0A753BE4F9C93EF5FF0E0E753FE4F03
:1012800010821092850181E08093C80108958091B9
:101290008501E82FF0E0E753FE4F90838F5F809346
:1012A000850108958091C80108951092C80108959C
:1012B00089EC91E0089570D088F09F5790F0B92F95
:1012C0009927B751A0F0D1F0660F771F881F991F9B
:1012D0001AF0BA95C9F712C0B13081F077D0B1E0F9
:1012E000089574C0672F782F8827B85F39F0B93F09
:1012F000CCF3869577956795B395D9F73EF490959D
:101300008095709561957F4F8F4F9F4F0895E8941A
:1013100009C097FB3EF490958095709561957F4F3D
:101320008F4F9F4F9923A9F0F92F96E9BB279395EB
:10133000F695879577956795B795F111F8CFFAF4FB
:10134000BB0F11F460FF1BC06F5F7F4F8F4F9F4F2C
:1013500016C0882311F096E911C0772321F09EE88A
:10136000872F762F05C0662371F096E8862F70E0F0
:1013700060E02AF09A95660F771F881FDAF7880FCA
:101380009695879597F9089557FD9058440F551FE6
:1013900059F05F3F71F04795880F97FB991F61F0F7
:1013A0009F3F79F087950895121613061406551F6E
:1013B000F2CF4695F1DF08C0161617061806991FDA
:1013C000F1CF86957105610508940895E894BB27CF
:1013D00066277727CB0197F908950BD078C069D09D
:1013E00028F06ED018F0952309F05AC05FC0112480
:1013F000EECFCADFA0F3959FD1F3950F50E0551FB4
:10140000629FF001729FBB27F00DB11D639FAA2759
:10141000F00DB11DAA1F649F6627B00DA11D661FA8
:10142000829F2227B00DA11D621F739FB00DA11DC9
:10143000621F839FA00D611D221F749F3327A00D83
:10144000611D231F849F600D211D822F762F6A2F1F
:1014500011249F5750408AF0E1F088234AF0EE0FA4
:10146000FF1FBB1F661F771F881F91505040A9F7B1
:101470009E3F510570F014C0AACF5F3FECF3983E39
:10148000DCF3869577956795B795F795E7959F5F18
:10149000C1F7FE2B880F911D9695879597F90895B2
:1014A00097F99F6780E870E060E008959FEF80EC17
:1014B000089500240A9416161706180609060895BA
:1014C00000240A9412161306140605060895092E20
:1014D0000394000C11F4882352F0BB0F40F4BF2B8F
:1014E00011F460FF04C06F5F7F4F8F4F9F4F0895CF
:1014F000AA1BBB1B51E107C0AA1FBB1FA617B7073A
:1015000010F0A61BB70B881F991F5A95A9F7809555
:101510009095BC01CD01089597FB072E16F4009419
:1015200006D077FD08D0E4DF07FC05D03EF49095A7
:1015300081959F4F0895709561957F4F0895052E71
:1015400097FB16F400940FD057FD05D023D007FC6D
:1015500002D046F408C050954095309521953F4FF4
:101560004F4F5F4F089590958095709561957F4F8F
:101570008F4F9F4F0895A29FB001B39FC001A39FBB
:10158000700D811D1124911DB29F700D811D1124BC
:10159000911D0895A1E21A2EAA1BBB1BFD010DC0CF
:1015A000AA1FBB1FEE1FFF1FA217B307E407F50713
:1015B00020F0A21BB30BE40BF50B661F771F881FEF
:1015C000991F1A9469F760957095809590959B0185
:1015D000AC01BD01CF010895FB01DC018D910190AB
:1015E00080190110D9F3990B08950F931F93CF938E
:1015F000DF93E0912F02F0913002238121FF1BC085
:101600008C01D0E0C0E0F80181918F0160912F0240
:1016100070913002DB011896ED91FC9119978823A7
:1016200031F00995892B79F3DFEFCFEFECCF8AE02A
:101630000995892B19F08FEF9FEF02C08D2F9C2FFA
:10164000DF91CF911F910F9108950F931F93CF9327
:10165000DF93CDB7DEB72E970FB6F894DEBF0FBE7F
:10166000CDBF0D891E8986E08C831A8309838FEF95
:101670009FE79E838D83AE01475E5F4F6F89788DB4
:10168000CE01019610D0EF81F885E00FF11F108296
:101690002E960FB6F894DEBF0FBECDBFDF91CF916F
:1016A0001F910F9108952F923F924F925F926F92E8
:1016B0007F928F929F92AF92BF92CF92DF92EF92E2
:1016C000FF920F931F93CF93DF93CDB7DEB72B9786
:1016D0000FB6F894DEBF0FBECDBF6C017B018A014F
:1016E000FC0117821682838181FFBFC1CE01019662
:1016F0003C01F6019381F70193FD859193FF819160
:101700007F01882309F4ADC1853239F493FD8591B9
:1017100093FF81917F01853221F4B60190E0D6D10B
:10172000E8CF912C212C312CFFE1F315D8F08B322E
:1017300079F038F4803279F08332A1F4232D2061DE
:101740001DC08D3261F0803369F4232D216016C0F5
:10175000832D8260382EE32DE4603E2E2AC0F32DC7
:10176000F8601DC037FC2DC020ED280F2A3040F056
:101770008E32B9F436FC75C1232D2064322E19C087
:1017800036FE06C08AE0989E200D1124922E11C0CC
:10179000EAE02E9E200D1124222EF32DF0623F2E22
:1017A00008C08C3621F4832D8068382E02C088361C
:1017B00041F4F70193FD859193FF81917F018111A0
:1017C000B3CF982F9F7D9554933028F40C5F1F4F13
:1017D0009FE399830DC0833631F0833771F08335F1
:1017E00009F055C020C0F801808189830E5F1F4F2A
:1017F00088248394912C530112C02801F2E04F0EEB
:10180000511CF801A080B18036FE03C0692D70E044
:1018100002C06FEF7FEFC5014ED14C018201F32D65
:10182000FF773F2E15C0280122E0420E511CF8011F
:10183000A080B18036FE03C0692D70E002C06FEF5A
:101840007FEFC5012DD14C01F32DF0683F2E8201B1
:1018500033FC19C0822D90E088169906A0F4B601D9
:1018600080E290E033D12A94F5CFF50137FC8591E1
:1018700037FE81915F01B60190E028D121102A94B2
:1018800021E0821A91088114910479F7E1C084362D
:1018900011F0893639F5F80137FE07C06081718192
:1018A000828193810C5F1F4F08C060817181072E78
:1018B000000C880B990B0E5F1F4FF32DFF763F2E08
:1018C00097FF09C090958095709561957F4F8F4FD8
:1018D0009F4FF0683F2E2AE030E0A30133D1882EDD
:1018E000861844C0853731F4232D2F7EB22E2AE08E
:1018F00030E025C0932D997FB92E8F36C1F018F4B2
:10190000883579F0AEC0803719F0883721F0A9C04A
:10191000E92FE061BE2EB4FE0DC0FB2DF460BF2E9A
:1019200009C034FE0AC0292F2660B22E06C028E066
:1019300030E005C020E130E002C020E132E0F801F3
:10194000B7FE07C060817181828193810C5F1F4F58
:1019500006C06081718180E090E00E5F1F4FA3019F
:10196000F1D0882E8618FB2DFF773F2E36FE0DC056
:10197000232D2E7FA22E891458F434FE0BC032FC86
:1019800009C0832D8E7EA82E05C0B82CA32C03C0C1
:10199000B82C01C0B92CA4FE0FC0FE01E80DF11D4A
:1019A0008081803321F49A2D997EA92E09C0A2FE50
:1019B00006C0B394B39404C08A2D867809F0B3941A
:1019C000A3FC10C0A0FE06C0B21480F4280C922C18
:1019D0009B180DC0B21458F4B60180E290E076D0A6
:1019E000B394F8CFB21418F42B1802C0982C212C01
:1019F000A4FE0FC0B60180E390E068D0A2FE16C03E
:101A0000A1FC03C088E790E002C088E590E0B60141
:101A10000CC08A2D867851F0A1FE02C08BE201C075
:101A200080E2A7FC8DE2B60190E050D0891430F43A
:101A3000B60180E390E04AD09A94F8CF8A94F301FB
:101A4000E80DF11D8081B60190E040D08110F6CF05
:101A5000222009F44ECEB60180E290E037D02A94DD
:101A6000F7CFF6018681978102C08FEF9FEF2B960B
:101A70000FB6F894DEBF0FBECDBFDF91CF911F919F
:101A80000F91FF90EF90DF90CF90BF90AF909F901D
:101A90008F907F906F905F904F903F902F90089520
:101AA000FC010590615070400110D8F78095909529
:101AB0008E0F9F1F0895FC0161507040019001102E
:101AC000D8F7809590958E0F9F1F08950F931F93C1
:101AD000CF93DF93FB01238121FD03C08FEF9FEFA5
:101AE0002CC022FF16C046815781248135814217C0
:101AF000530744F4A081B1819D012F5F3F4F318393
:101B000020838C93268137812F5F3F4F3783268335
:101B100014C08B01EC01FB010084F185E02D0995D7
:101B2000892BE1F6D80116968D919C911797019615
:101B300017969C938E931697CE01DF91CF911F91AC
:101B40000F910895FA01AA27283051F1203181F12F
:101B5000E8946F936E7F6E5F7F4F8F4F9F4FAF4FB5
:101B6000B1E03ED0B4E03CD0670F781F891F9A1FC8
:101B7000A11D680F791F8A1F911DA11D6A0F711D7C
:101B8000811D911DA11D20D009F468943F912AE088
:101B9000269F11243019305D3193DEF6CF01089570
:101BA000462F4770405D4193B3E00FD0C9F7F6CFA1
:101BB000462F4F70405D4A3318F0495D31FD405269
:101BC000419302D0A9F7EACFB4E0A69597958795FF
:101BD00077956795BA95C9F70097610571050895DE
:101BE0009B01AC010A2E069457954795379527958A
:101BF000BA95C9F7620F731F841F951FA01D089522
:041C0000F894FFCF86
:101C040000000002000000002E09000000003F0652
:101C14005B4F666D7D077F67804F46460A004F46DF
:101C240046004C4F570A004C4F57004D4944444C12
:101C3400450A004D4944444C4500484947480A0078
:101C440048494748004C4F575F4D4F4445004D4964
:101C540044444C455F4D4F444500484947485F4D17
:101C64004F4445005448452046414E360054696D62
:0E1C740065203A20253032643A253032640073
:00000001FF
